:020000040000FA
:08000000803102288731FC2F3A
:100F4A0071082B00900070088F0001308D00080096
:100F5A00F00070082900940002309700D030950004
:100F6A0020009110080064307606031DBD2FBE2FA5
:100F7A00BF2FF6017608F60AF200F301F235F30DF7
:100F8A000030720784008830733D8500003FF0000E
:100F9A00013FF1000800F43021009B001C1ED62FEF
:100FAA00D72FD32F0E1723000E1321000C11230065
:100FBA000C15B0302B008E0064308731AD27873195
:100FCA008731B82787317108F5007008F400750871
:100FDA00F1007408F0008731A52787312000911CA1
:100FEA00F72FF82FF32F9110E52F80310228F60101
:100FFA0020008731D02FF4340134133402343334CF
:10100A00023452340234703402348F340234AC3431
:10101A000234C9340234E5340234003403341A3455
:10102A000334333403344A340334603403347534B8
:10103A000334893403349A340334AA340334B83475
:10104A000334C5340334D0340334D8340334DF349E
:10105A000334E4340334E7340334E8340334E73440
:10106A000334E4340334DF340334D8340334D0345F
:10107A000334C5340334B8340334AA3403349A34F9
:10108A0003348934033475340334603403344A3402
:10109A000334333403341A34033400340334E53468
:1010AA000234C9340234AC3402348F34023470341A
:1010BA000234523402343334023413340234F434F2
:1010CA000134D5340134B5340134963401347834DA
:1010DA000134593401343C3401341F3401340334AB
:1010EA000134E8340034CE340034B53400349E344C
:1010FA00003488340034733400345F3400344E349E
:10110A0000343E340034303400342334003418348C
:10111A000034103400340934003404340034013407
:10112A000034003400340134003404340034093407
:10113A00003410340034183400342334003430348A
:10114A0000343E3400344E3400345F340034733497
:10115A000034883400349E340034B5340034CE343C
:10116A000034E8340034033401341F3401343C348D
:10117A000134593401347834013496340134B534A5
:06118A000134D5340134EC
:020000040001F9
:04000E00E4FFFFFF0D
:00000001FF
