:020000040000FA
:08000000803102288731F02F46
:100D8600FE0012001E00FE0BC42E003471082B005C
:100D9600900070088F0001308D000800F000700888
:100DA6002900940002309700D03095002000911061
:100DB60008002D342B3428342634243422342034AD
:100DC6001E341D341B341A34183417346430780634
:100DD600031DEE2EEF2EF02EF8017808F80AF20029
:100DE600F301F235F30D0030720784008830733D4D
:100DF6008500003FF000013FF1000800F601F31FF7
:100E0600052F062F0D2FF209F309F20A0319F30A2B
:100E1600F601F60AF11F102F112F162FF009F1090E
:100E2600F00A0319F10A7008710403191B2F1C2F0D
:100E3600452FF501F50A282F0130F035F10D890B04
:100E4600202F0130F4007408F507F11F2B2F2C2FEB
:100E56001F2F71087302031D322F70087202031CC4
:100E6600352F362F3A2F7008F2027108F33B013006
:100E7600F136F00C890B3B2F0130F502031D442F90
:100E8600452F2C2F76080319492F4A2F4F2FF20989
:100E9600F309F20A0319F30A7308F1007208F00065
:100EA6000800F43021009B002000B101B20133306C
:100EB60086000030870020308400003085000D3029
:100EC600F70016001A00F70B642F21001C1E6C2F6A
:100ED6006D2F682F0E1723000E1321000C1123000F
:100EE6000C15B0302B008E00200020088631D1264C
:100EF600873101302000B1070030B23D0130AF002C
:100F06000030B0008B15270017172700191F8C2FEC
:100F16008D2FA72F20002F033004031D932F942F0E
:100F2600A72F2700191320003108203E86008701CD
:100F360001088631D126873101302000B107003003
:100F4600B23DAF01B001C72F2700191FAB2FAC2F41
:100F5600C72F20002F083004031DB22FB32FC72F31
:100F66002700191320003108203E8600870101085A
:100F76008631D126873101302000B1070030B23DDD
:100F86000130AF000030B0000D30F0000030F1004D
:100F960020003208F3003108F2008731012787313B
:100FA60071082000B2007008B1008631E926873149
:100FB60071082000AE007008AD002E08F1002D0863
:100FC600F0008631C92687312000911CEB2FEC2FCB
:100FD600E72F9110882F80310228DC30840086307C
:100FE600850033308600003087000D308631C326F9
:100FF6008731F80120008731542FF434013413343B
:1010060002343334023452340234703402348F34AE
:101016000234AC340234C9340234E53402340034C8
:1010260003341A340334333403344A340334603417
:10103600033475340334893403349A340334AA34BC
:101046000334B8340334C5340334D0340334D834C9
:101056000334DF340334E4340334E7340334E8344C
:101066000334E7340334E4340334DF340334D8344C
:101076000334D0340334C5340334B8340334AA34C7
:1010860003349A34033489340334753403346034B6
:1010960003344A340334333403341A340334003407
:1010A6000334E5340234C9340234AC3402348F34A8
:1010B600023470340234523402343334023413347A
:1010C6000234F4340134D5340134B5340134963461
:1010D600013478340134593401343C3401341F343A
:1010E600013403340134E8340034CE340034B534EA
:1010F60000349E34003488340034733400345F3452
:1011060000344E3400343E3400343034003423345A
:1011160000341834003410340034093400340434F4
:101126000034013400340034003401340034043413
:1011360000340934003410340034183400342334B5
:101146000034303400343E3400344E3400345F34DE
:10115600003473340034883400349E340034B5349B
:101166000034CE340034E8340034033401341F3400
:1011760001343C3401345934013478340134963422
:0A1186000134B5340134D5340134CE
:020000040001F9
:04000E00E4FFFFFF0D
:00000001FF
